:100200000C9452010C947A010C947A010C947A01AA
:100210000C947A010C947A010C9420160C947A01B7
:100220000C947A010C947A010C947A010C947A0162
:100230000C947A010C947A010C94DD160C948E17B0
:100240000C947A010C947A010C947A010C947A0142
:100250000C94B1150C947A010C947A010C947A01E7
:100260000C94D6150C947A010C946B160C944516CC
:100270000C947A010C9467150C947A010C947A0111
:100280000C947A010C947A010C94FB150C948C1547
:100290000C9403150C94B7160C9491160C947A01D7
:1002A00099187C1811241FBECFEFCDBFDFE3DEBF4E
:1002B00018E2A0E0B8E2E0E8F5E402C005900D9293
:1002C000AA30B107D9F72CE2AAE0B8E201C01D922A
:1002D000A537B207E1F711E0C1E5D1E004C02197ED
:1002E000FE010E94B820C035D107C9F70E943B1A11
:1002F0000C94F7210C940001089508950895089531
:10030000862FE0919F29F091A029309711F0BA0132
:1003100009940895862FE0919D29F0919E293097A8
:1003200011F0BA0109940895862FE0919B29F0916C
:100330009C29309711F0BA0109940895862FE09115
:100340009929F0919A29309711F0BA0109940895EA
:10035000862FE0919729F0919829309711F0BA01F2
:1003600009940895862FE0919529F0919629309768
:1003700011F0BA01099408950895862F642FE09131
:10038000A129F091A229309711F0A90109940895AB
:100390000895CF93DF93FC01A081B181109701F103
:1003A000EC01ED91FC9111970190F081E02D69EF46
:1003B000CD01099588819981DC01ED91FC91019035
:1003C000F081E02D62E0099588819981DC01ED9151
:1003D000FC910190F081E02D65E0DF91CF910994CF
:1003E000DF91CF9108951F93CF93DF93182FEB01E7
:1003F0008091582B9091592B6817790760F4809160
:10040000562B9091572BC80FD91F188380E0DF918E
:10041000CF911F910895E091852BF091862B309715
:1004200011F481E0F4CF81E08093552B8091712B02
:100430009091722B09958091582B9091592BC81748
:10044000D90778F7DCCFCF93DF93EC01FB0130E0E5
:1004500020E0C901880F991F8C179D0778F440810F
:10046000DB014D93BD011197918197959927979540
:10047000942B9C932F5F3F4F3296EBCFC901DF91B6
:10048000CF910895CF93DF9390E0FC01E557FB47B0
:1004900020812F3F71F0FC01EE59FB47A08130E233
:1004A000A39FD0011124BC5F6130710529F411961E
:1004B0002C93DF91CF910895875C9B47EC01E881F5
:1004C000EF3F89F0CD014096E80FF92FF11D9FB75E
:1004D000F89412962C9380816230710539F488600B
:1004E00080839FBFE6CFF0E0E0E0F1CF877FF8CFD9
:1004F000282F30E0F901E05FFB47E081EE2309F1AE
:10050000E13021F0F0F0E63098F008954091010AD2
:10051000275C3B47F90120812C5F81E090E001C01E
:10052000880F2A95EAF7809584238093010A08951D
:1005300080E1E89FF0011124E05AF54F81818F7E20
:1005400081830895FF920F931F93CF93DF93082F1A
:1005500010E0F801E557FB47F0809FEFF916A1F096
:10056000EB01893210F40E947802F801EE59FB4742
:10057000E08180E2E89FF0011124FC5F80818F21FF
:1005800059F0CD2B39F4F682DF91CF911F910F9165
:10059000FF900895F582F8CFD801A75CBB478C91F6
:1005A000309771F08F3F61F07096E80FF11D9FB7A3
:1005B000F8948081CD2B39F4877F80839FBFE4CF6F
:1005C000F0E0E0E0F4CF8860F8CF893210F40C94CA
:1005D000420208958E508093060681E080930806BB
:1005E00080910B0680FFFCCF2FB7F8948091100606
:1005F000909111062FBF0895CF93DF938FB7F89492
:100600002091B1293091B2294091B3295091B42958
:10061000E091BA0A9091B60A90FF06C02F5F3F4F53
:100620004F4F5F4FE091BA0A8FBFA091AF29B091B1
:10063000B029C091AD29D091AE290E947C20EC9FB9
:100640009001ED9F300D1124620F731F811D911DCC
:10065000DF91CF9108958F929F92AF92BF92CF92E8
:10066000DF92EF92FF924B015C010E94FC026B0152
:100670007C01A8EEB3E0A50194010E947C20C60E87
:10068000D71EE81EF91EC616D706E806F90618F4A6
:100690000E94FC02F8CF0E94FC026C157D058E05BD
:1006A0009F05C8F3FF90EF90DF90CF90BF90AF9081
:1006B0009F908F900895009721F0805C9F4F0C943D
:1006C000C9010895EF92FF920F931F93CF93DF9389
:1006D000C82FD0E0A09695E0CC0FDD1F9A95E1F7EA
:1006E000E984082F000F000F000FFF24F39410E09F
:1006F0008E2D8F2189F0E02FE10FF0E0EE0FFF1F2C
:10070000EB5CF64D80819181892B31F00190F08175
:10071000E02D90E080E009951F5FFF0C183041F755
:10072000E986DF91CF911F910F91FF90EF9008958F
:10073000FC01A485B58511968C91119781FD1BC094
:100740006C9182898F5F8F739389981739F0A28992
:10075000AE0FBF2FB11D59966C93828BE756FF4F9A
:1007600080819181009741F0DC01ED91FC91019035
:10077000F081E02D09948C910895FC0154894589FC
:10078000252F30E0842F90E0821B930B541710F03C
:10079000CF96089501970895FC019289838998174F
:1007A00061F0A389AE0FBF2FB11D59968C9193892B
:1007B0009F5F9F73938B90E008958FEF9FEF089555
:1007C000FC0192898389981731F08389E80FF11D24
:1007D000818D90E008958FEF9FEF0895FC0192893D
:1007E0002389892F90E0805C9F4F821B91098F7332
:1007F00099270895CF93DF93EC01E881F981068072
:10080000F781E02D0995EC85FD8586818F738683C0
:10081000EC85FD8585818F7585838B898A8B198A07
:10082000DF91CF910895CF92DF92EF92FF920F93D5
:100830001F93CF93DF93EC016A017B01022F89891B
:10084000882339F0E881F9810288F389E02DCE010F
:10085000099598898091E205892B8093E2051FB75D
:10086000F89460E070E281EA97E0A70196010E94A7
:10087000342069017A018FEFC81AD80AE80AF80A09
:10088000F694E794D794C794EC85FD8586818D7F97
:100890008683EC85FD8586818683198AA091231144
:1008A0000A2E000CBB0BA70196010E94872020E0B6
:1008B00034E040E050E00E945620EC85FD85C20EF9
:1008C000D31EE41EF51EC086D186EC85FD85078308
:1008D000EC85FD858681806C8683EC85FD85858130
:1008E000806885838E8562E070E00E94E5028F85D6
:1008F000893220F461E070E00E94A2028F8561E0FD
:1009000070E00E94E5021FBFDF91CF911F910F9110
:10091000FF90EF90DF90CF900895CF93DF93FC018D
:1009200094898589C485D585981306C08D818F7D6E
:100930008D83DF91CF910895A589AE0FBF2FB11D93
:10094000A75ABF4F2C91858990E001968F73992704
:10095000858B80E48C83A485B58512962C9394892D
:1009600085899813E6CFA485B58515968C91159742
:100970008F7D15968C9387898823D9F2808D8093FB
:100980001301178AD6CFDC011C96ED91FC910FB6AE
:1009900007FE03C0258125FD04C0248125FD0C949C
:1009A0008D040895EF92FF920F931F93CF93DF93DF
:1009B000EC0181E0898B9C898D8998131CC0AC85E2
:1009C000BD8514968C91149785FF15C012966C9373
:1009D000AC85BD8580E414968C93EC85FD8585817E
:1009E0008F7D858381E090E0DF91CF911F910F9102
:1009F000FF90EF9008958091110180FF08C08091D1
:100A00001301888F8E898093130181E08F8BF62EDE
:100A10000C8910E00F5F1F4F0F731127E02E8D8997
:100A20008E1104C0CE010E94C304F9CFEC89EC0FF3
:100A3000FD2FF11DE75AFF4FF0820C8BEC85FD85F1
:100A400085818062CECFCF93DF93FC012189222361
:100A5000C9F0EC018091110180FF08C08091130161
:100A6000808F86898093130181E0878BEC85FD85DB
:100A7000858185FD03C0848186FD04C0CE010E946E
:100A8000C304F4CFDF91CF91089581E00895DC0194
:100A9000ED91FC910190F081E02D0994AF92BF920D
:100AA000CF92DF92EF92FF920F931F93CF93DF933A
:100AB0006C017B018B01040F151FEB015E01AE1869
:100AC000BF08C017D10759F06991D601ED91FC918B
:100AD0000190F081E02DC6010995892B79F7C501B8
:100AE000DF91CF911F910F91FF90EF90DF90CF900A
:100AF000BF90AF9008955F926F927F928F929F9276
:100B0000AF92BF92CF92DF92EF92FF920F931F931B
:100B1000CF93DF935C016901DA015C90232B19F418
:100B2000CC24CA94DC2C8A013A01660E771ED0E0F0
:100B3000C0E0F12CE12C87E0882E912CF50180811A
:100B40009181D8016C910C2E01C0660F0A94EAF7CE
:100B500065296F77DC01ED91FC910190F081E02D2A
:100B60000995BFEFEB1AFB0AF801608170E0C40140
:100B70008C1B9D0B02C0759567958A95E2F7562EE2
:100B80002196C730D10558F1CE14DF0441F1D501CB
:100B90008D919C91652D6F77DC01ED91FC91019019
:100BA000F081E02D0995BFEFEB1AFB0A551C552487
:100BB000551C2797E6CFEC14FD0408F4BFCFDF9156
:100BC000CF911F910F91FF90EF90DF90CF90BF904A
:100BD000AF909F908F907F906F905F9008950F5F80
:100BE0001F4F6016710639F7209749F3EC14FD0486
:100BF00030F7F5018081918161E070E001C0660FFE
:100C0000CA95EAF761506521DC01ED91FC910190F4
:100C1000F081E02DDF91CF911F910F91FF90EF9028
:100C2000DF90CF90BF90AF909F908F907F906F900C
:100C30005F9009941F93CF93DF9300D0CDB7DEB7B9
:100C4000182F69837A838091532B9091542B0097AE
:100C5000B9F0DC01ED91FC910190F081E02D61157E
:100C60007044A0F4612F606E099522E030E0AE017F
:100C70004F5F5F4F62E070E083E59BE20E947B057F
:100C80000F900F90DF91CF911F91089560EF09951C
:100C90008091532B9091542BDC01ED91FC910190AC
:100CA000F081E02D6FE609958091532B9091542BA4
:100CB000DC01ED91FC910190F081E02D612F09950F
:100CC00022E030E0AE014F5F5F4F62E070E083E50D
:100CD0009BE20E947B058091532B9091542BDC0169
:100CE000ED91FC910190F081E02D67EF0995C8CF5F
:100CF000CF92DF92EF92FF920F931F93CF93DF93E8
:100D0000FC01E058FF4FE080EE2009F45CC0EC01EC
:100D1000C05CDF4FA881B981109709F454C0FC0171
:100D2000EF57FF4FC080D180F60111810081ED9116
:100D3000FC9111970190F081E02D60EFCD010995B4
:100D400088819981DC01ED91FC910190F081E02D89
:100D500069E7099588819981DC01ED91FC91019009
:100D6000F081E02D602F099588819981DC01ED915A
:100D7000FC910190F081E02D612F0995F12C01E0AB
:100D800010E00F5F1F4FE016F10659F030E020E051
:100D9000A601400F511F61E070E0CE010E947B056B
:100DA000F0CF88819981DC01ED91FC910190F08177
:100DB000E02D67EFDF91CF911F910F91FF90EF90A2
:100DC000DF90CF900994DF91CF911F910F91FF9009
:100DD000EF90DF90CF900895009711F00C94780673
:100DE0000895CF93DF93EC01DB014AE0E881F981BC
:100DF000908190539A30C0F48D919C911197489FA7
:100E00009001499F300D11242D933C9311978191AE
:100E100020533109280F311D87FD3A952D933C93BE
:100E20001197E883F983E2CFDF91CF910895DC0138
:100E3000ED91FC9111979F012E5F3F4F2D933C93B5
:100E4000808191810895CF92DF92EF92FF920F936C
:100E50001F93CF93DF936C017B0110E000E0D0E0A3
:100E6000C0E0D6011296ED91FC91E00FF11F649164
:100E7000662369F0D701ED91FC910190F081E02D9E
:100E8000C7010995C80FD91F0F5F1F4FEACFCE01C9
:100E9000DF91CF911F910F91FF90EF90DF90CF9056
:100EA0000895DC011496ED91FC91159716968D919D
:100EB0009C9117979C012F5F3F4F16962D933C9363
:100EC0001797E80FF91F608381E090E00895089577
:100ED000EF92FF920F931F93CF93DF937C01EB016F
:100EE0008B01040F151FC017D10759F0D701ED91E1
:100EF000FC910480F581E02D6881C70109958993F3
:100F0000F2CFDF91CF911F910F91FF90EF90089555
:100F10000F931F93CF93DF93EC018B018091C00857
:100F2000E881F9810480F581E02D86FD13C0612FF1
:100F3000CE010995182FE881F9810480F581E02D13
:100F4000602FCE010995082FC801DF91CF911F9125
:100F50000F910895CE010995082FE881F981048049
:100F6000F581E02D612FCE010995182FEDCF0000FE
:100F70006093C4088091C30887FFFCCF8091C408A8
:100F800008958F929F92AF92BF92CF92DF92EF928D
:100F9000FF920F931F93CF93DF93FC0180858823EB
:100FA00019F081FF0EC07894DF91CF911F910F91BE
:100FB000FF90EF90DF90CF90BF90AF909F908F9079
:100FC000089580FFF1CF82849384A484B584C12CDA
:100FD000D12C760110E09401A501B601C701A0E073
:100FE0000E94AC2099F1217030E040E050E060E0D8
:100FF00070E080E090E00E94AC20D9F0D0E0C0E04A
:10100000103370F4C12FC695C695C69580E2C89F6F
:10101000E0011124C05FDB4F812F8770C80FD11D05
:10102000CF01810F911DDC0152968C919881892B03
:1010300088839401A501B601C70101E00E949120B7
:1010400049015A016B017C011F5FC5CF86849784DB
:10105000A088B188C12CD12C760110E29401A501A1
:10106000B601C701A0E00E94AC2009F49DCF217019
:1010700030E040E050E060E070E080E090E00E940E
:10108000AC20D9F0D0E0C0E0103370F4C12FC69589
:10109000C695C695B0E2CB9FE0011124C05FDB4F3F
:1010A000812F8770C80FD11DCF01810F911DDC01E9
:1010B00052968C919881892B88839401A501B60161
:1010C000C70101E00E94912049015A016B017C0196
:1010D0001F5FC4CFFC016F3F710581F1808581FDE9
:1010E0002DC0603271055CF581E090E002C0880F90
:1010F000991F6A95E2F780959095092E000CAA0B2E
:10110000BB0B428553856485758584239523A6236F
:10111000B72382879387A487B58782859385A48523
:10112000B585892B8A2B8B2B49F486859785A089D9
:10113000B189892B8A2B8B2B09F410860895605274
:10114000710981E090E002C0880F991F6A95E2F76B
:1011500080959095092E000CAA0BBB0B46855785F0
:101160006089718984239523A623B723868797876F
:10117000A08BB18BD2CFFC016F3F7105E9F16033D9
:1011800071051CF082E080870895808581608087EA
:1011900060327105C4F481E090E002C0880F991FAD
:1011A0006A95E2F7092E000CAA0BBB0B428553850A
:1011B00064857585842B952BA62BB72B8287938707
:1011C000A487B58708956052710981E090E002C05C
:1011D000880F991F6A95E2F7092E000CAA0BBB0B2A
:1011E0004685578560897189842B952BA62BB72B53
:1011F00086879787A08BB18B0895E0ECF8E020817B
:101200002E7F2083FC0117820895E0ECF8E08281B4
:101210008E7F82830895E0ECF8E082818160828392
:101220000895609333297093342908956093312988
:10123000709332290895E0913329F0913429309741
:1012400041F01092302910922F29099580912F2971
:10125000089580E00895E0913129F0913229309786
:1012600059F030912E2920912D29321728F0109213
:101270002E2980932D29099408950895E0912E290F
:1012800080912D29E81730F4F0E0E355F74D808187
:1012900090E008958FEF9FEF089590912E2980910F
:1012A0002D292FEF3FEF981748F4E92FF0E0E35591
:1012B000F74D208130E09F5F90932E29C90108955A
:1012C00080912D2990912E29891B990B0895CF92F9
:1012D000DF92EF92FF920F931F93CF93DF937C01E6
:1012E0008A01EB016B01C40ED51ECC15DD0551F052
:1012F0006991D701ED91FC910190F081E02DC7013A
:101300000995F3CFC801DF91CF911F910F91FF9005
:10131000EF90DF90CF90089520912F2927FF08C0EC
:1013200021E030E0FC012283338390E080E00895E7
:1013300080913029E82FF0E0E35DF74D60838F5F07
:101340008093302980932F2981E090E00895DC017B
:10135000ED91FC91008CF18DE02D61E0099460939A
:101360002C281092302910922F2908950F931F9343
:10137000CF938C01C62FFC0164818BED9BE20E9410
:10138000AF09F80163856C2B8BED9BE20E948C0901
:101390008BED9BE2CF911F910F910C94A709DC017B
:1013A000ED91FC91048CF58DE02D21E00994E0EAAB
:1013B000F8E01382168281E08583148611861092EC
:1013C0002A2810922B28089510922E2910922D2948
:1013D0001092302910922F2980912A2890912B2841
:1013E000892BD9F482E090E080932A2890932B28CF
:1013F00010921D2810921C2810921B2810921A2857
:101400001092192810921828660F6093AC0881EE8C
:101410008093A90881E08093A3088BE199E08093F1
:101420002028909321288DE298E280931E289093A3
:101430001F288BE299E080932528909326288DEA37
:1014400098E2809323289093242880E88093222890
:1014500008950F9391E09093292810921528609396
:101460001328709314284093122820931128109267
:1014700016281092172800931028880F80930F28A1
:1014800023E030E044E050E080911228882341F0CE
:1014900020932A2830932B2880910F288E7F0BC011
:1014A00080911128882351F040932A2850932B28AB
:1014B00080910F2881608093A70808C0809112282E
:1014C000811104C080911128882311F3809115287F
:1014D0008823E1F3809115288330B1F2809111289F
:1014E000882321F0809117280F9108958091152865
:1014F000823031F0853031F0813031F480E0F4CF4A
:1015000081E0F2CF83E0F0CF84E0EECF0F938091C3
:101510002A2890912B280197A1F4809129288111E4
:1015200012C0062F20E040912F296DE278E28091D1
:101530002C280E94290A1092302910922F290F91ED
:10154000089580E0F8CF81E0F6CF0F938DEA98E21E
:10155000809327289093282880912A2890912B28DF
:101560000197C9F480912928811117C0FA014138E7
:10157000510510F0E0E8F0E0022F862F2E2F40E01A
:1015800070E060E00E94290A10922E2980932D2994
:1015900090E00F91089580E0F7CF81E0F5CFE0EA89
:1015A000F8E091859066918722E030E020932A2828
:1015B00030932B2880931A2810921B28089581E0DD
:1015C00080931B2810921A2893E09093AA08909178
:1015D000AB0891FF10C010921C28E0912028F091D8
:1015E0002128099580930E2885E090E080932A2891
:1015F00090932B28089510921D288093182886E038
:1016000090E0F4CF8F929F92AF92BF92CF92DF92F1
:10161000EF92FF92CF93DF9360342DE0720723E0C7
:101620008207910508F454C0611525E372072CE088
:101630008207910508F445C060387F4482419105D6
:1016400008F046C0C8E7D0E020E432E44FE050E0C4
:101650008090002890900128A0900228B090032844
:10166000C501B4010E94342069017A018AE0C81AD8
:10167000D108E108F108C501B40120E432E44FE0EB
:1016800050E00E943420DE010E947C2028EE33E0EE
:1016900040E050E00E943420C21AD30AE40AF50A5E
:1016A000F694E794D794C794C092A608DF91CF919F
:1016B000FF90EF90DF90CF90BF90AF909F908F9072
:1016C0000895CCE2D1E020E83AE146E050E0C0CF16
:1016D000C8EED3E020EA36E841E050E0B9CFCB01D4
:1016E000BA010C94020B10922E2910922D291092FF
:1016F000302910922F2980912A2890912B28892B0C
:10170000F1F48091E3058093E30581E090E080931C
:101710002A2890932B28109217281092162810929E
:1017200029281092152881EC8093A30860EA76E8B6
:1017300081E090E00E94020B81E08093A50808956B
:10174000882319F0823021F008951092032C089517
:1017500010920E2C0895FC01628973899B012F5F02
:101760003F4F228B338B82E00C941A06DC011496D7
:101770008D919C91DC01ED91FC910190F081E02D27
:101780000994DC01ED91FC910088F189E02D23E0C2
:1017900030E00994089590E080E00895CF92DF92C0
:1017A000EF92FF920F931F93DC018FB7F894409153
:1017B000A9295091AA296091AB297091AC298FBFBA
:1017C00012960D911D912D913C9115976A017B0107
:1017D000C01AD10AE20AF30A16960D911D912D91B5
:1017E0003C911997C016D106E206F306C8F01A9686
:1017F0008C911A97811114C012964D935D936D933D
:101800007C931597ED91FC9111970680F781E02D5F
:10181000CD011F910F91FF90EF90DF90CF90099431
:101820001F910F91FF90EF90DF90CF900895FC01F2
:1018300046835783608771872FB7F8944091A92911
:101840005091AA296091AB297091AC292FBF428396
:101850005383648375830895EF92FF921F93CF9310
:10186000DF93EC018B858932B8F4E82EF12CF70177
:10187000E557FB4710811F3F79F00E947802F7017E
:10188000EE59FB47E08180E2E89FF0011124FC5F04
:101890008085812311E009F410E08C85811791F097
:1018A0009D8591130FC08130A1F4EE85FF8530979F
:1018B00009F00995E881F9810084F185E02DCE01D8
:1018C00009951C871D87DF91CF911F91FF90EF90A5
:1018D0000895E889F989309709F00995E881F98137
:1018E0000284F385E02DEBCFCF93DF93EC010E94D0
:1018F000170C62E070E08B85DF91CF910C94E502CC
:101900000C9469210C9469210C9469210C9469212F
:101910000C9469210F931F93CF938C01C62F0E94C3
:10192000B6096C2F6460C8010E94B6096C2F6B7FEA
:10193000C8010E94B60983EC90E00197F1F7CF91BE
:101940001F910F9108950F931F93CF93DF938C01F5
:10195000D62FC42F607F642B0E948A0C80E1D89F11
:10196000B00111246C2BC801DF91CF911F910F9111
:101970000C948A0CCF93DF93CDB7DEB72897CDBFF9
:10198000DEBF98E0E8E0F4E8DE01119601900D92E8
:101990009A95E1F79091F52B2FEF911121E030E02E
:1019A000220F331F41E050E04C0F5D1F240F351F05
:1019B000F9016081680F606840E08DEE9BE2289637
:1019C000CDBFDEBFDF91CF910C94A30C41E00E940C
:1019D000A30C81E090E008950F931F93CF93DF93C2
:1019E000082F70E060E089E00E94A202D0E0C0E031
:1019F00010E0B8010C2E02C0759567950A94E2F7C5
:101A0000617077278AE00E94A20261E070E088E0BE
:101A10000E94A20270E060E088E00E94A20221968B
:101A2000C830D10531F761E070E089E0DF91CF91F6
:101A30001F910F910C94A202CF93DF93EC010E94AF
:101A4000170C8B85DF91CF910C94EC0CCF93DF9327
:101A5000EC0180910C2890910D2881309105A9F41A
:101A60008B850E94EC0C2B853C85C901880F991F42
:101A7000220F232F221F330B20FD05C08B879C874D
:101A8000DF91CF9108958160F9CF0297C9F78B85D7
:101A90000E94EC0C2B853C85C901959587958B8719
:101AA0009C8720FF02C08068E9CF8F77E7CF85351C
:101AB00009F4D4C080F5873109F46EC148F485314A
:101AC00009F45FC108F063C1813109F454C008957D
:101AD000833309F47DC0843409F49DC0823209F057
:101AE0005FC181E08093222C8091232C9091242C43
:101AF0002091272C3091282C232B09F05FC00296CF
:101B00008093232C9093242C81E090E08093272CC9
:101B10009093282C0895823809F417C118F5873757
:101B200009F4C9C0813809F419C1863609F038C1F1
:101B300081E08093222C8091232C9091242C209161
:101B40002F2C3091302C232B09F0ABC08096809342
:101B5000232C9093242C81E090E080932F2C909361
:101B6000302C0895843809F403C108F4FAC0883889
:101B700009F4C6C0089581E08093222C8091232C23
:101B80009091242C2091252C3091262C232B61F42C
:101B900001968093232C9093242C81E090E08093F5
:101BA000252C9093262C089501978093232C9093B5
:101BB000242C1092252C1092262C089502978093A5
:101BC000232C9093242C1092272C1092282C0895CB
:101BD00081E08093222C8091232C9091242C2091C1
:101BE000292C30912A2C232B61F404968093232CEA
:101BF0009093242C81E090E08093292C90932A2CC0
:101C0000089504978093232C9093242C1092292CD0
:101C100010922A2C089581E08093222C8091232C0D
:101C20009091242C20912B2C30912C2C232B61F47F
:101C300008968093232C9093242C81E090E080934D
:101C40002B2C90932C2C089508978093232C909301
:101C5000242C10922B2C10922C2C089581E0809330
:101C6000222C8091232C9091242C20912D2C30918A
:101C70002E2C232B61F440968093232C9093242CBC
:101C800081E090E080932D2C90932E2C0895409726
:101C90008093232C9093242C10922D2C10922E2C78
:101CA000089580978093232C9093242C10922F2CAE
:101CB0001092302C089581E08093222C8091232C67
:101CC0009091242C2091312C3091322C232B69F4CB
:101CD000805C9F4F8093232C9093242C81E090E094
:101CE0008093312C9093322C0895805491098093E5
:101CF000232C9093242C1092312C1092322C089586
:101D000081E08093222C8091232C9091242C20918F
:101D1000332C3091342C232B69F480589F4F8093BF
:101D2000232C9093242C81E090E08093332C90938B
:101D3000342C0895805891098093232C9093242C5F
:101D40001092332C1092342C089581E090E080930F
:101D50000C2890930D281092222C089582E090E098
:101D6000F6CF81E08093222C8091232C0C94EC0CF4
:101D700081E08093222C1092232C1092242C80E05E
:101D8000F5CF81E08093032C80930E2C0895109260
:101D9000032C10920E2C08951092162C1092172CD2
:101DA0000895FB0101900020E9F73197AF01461B30
:101DB000570BDC01ED91FC910280F381E02D099439
:101DC0008F929F92AF92BF92EF92FF920F931F93C9
:101DD000CF93DF93CDB7DEB7A197CDBFDEBF7C0138
:101DE000FA01CB0119A2223008F42AE08E010F5D1E
:101DF0001F4F822E912CB12CA12CBF01A501940163
:101E00000E943420F901CA016A30F4F4605DD801FF
:101E10006E938D01232B242B252B79F790E080E006
:101E2000109721F0BD01C7010E94D10EA196CDBF30
:101E3000DEBFDF91CF911F910F91FF90EF90BF9088
:101E4000AF909F908F900895695CE1CFCF92DF9221
:101E5000EF92FF920F931F93CF93DF9377FF1DC0F5
:101E60006A017B01EC016DE20E9447058C01442769
:101E70005527BA014C195D096E097F092AE0CE0188
:101E80000E94E00E800F911FDF91CF911F910F9163
:101E9000FF90EF90DF90CF9008952AE0DF91CF91EF
:101EA0001F910F91FF90EF90DF90CF900C94E00E78
:101EB0002F923F924F925F926F927F928F929F925A
:101EC000AF92BF92CF92DF92EF92FF920F931F9348
:101ED000CF93DF9300D01F92CDB7DEB78A839B8369
:101EE0004B01FC0182899389019709F0CEC08F01D3
:101EF00044244A9431E090E08FEF20E04281411188
:101F0000B0C043814111ADC09F5F8F3F11F4822F5C
:101F100091E0391714F4392F482E32962F5F28306C
:101F200069F71A821B82D12CC12CA42C042C000C22
:101F3000BB083501630E711C37FD7A94CA14DB04AB
:101F400024F0C614D7040CF490C0F8018281682FE5
:101F500070E094E0759567959A95E1F7362E8F704D
:101F6000582E8381E82EF12C24E0F594E7942A95ED
:101F7000E1F72E2C8F708983662309F4B7C0F9E04E
:101F8000F61708F470C0605DC4010E9447052A81FD
:101F90003B81280F391F2A833B8339E060E33515E5
:101FA00008F467E5650DC4010E944705EA81FB81DD
:101FB000E80FF91FEA83FB83311004C0511002C0FF
:101FC000222079F0F9E060E3F21508F467E56E0D80
:101FD000C4010E9447052A813B81280F391F2A83AB
:101FE0003B833981632F605D3A3010F06981695A13
:101FF000C4010E944705EA81FB81E80FF91FEA83CB
:10200000FB83F7E0CF16D10451F06AE3C4010E94CC
:1020100047052A813B81280F391F2A833B833FEFE5
:10202000C31AD30A0E5F1F4F88E0C816D10409F007
:1020300085CF8A819B812396CDBFDEBFDF91CF9173
:102040001F910F91FF90EF90DF90CF90BF90AF90D6
:102050009F908F907F906F905F904F903F902F90C8
:1020600008958FEF5ACF695A8FCFAC14BD04B9F6DB
:102070004110CBCF6AE3C4010E944705EA81FB818E
:10208000E80FF91FEA83FB83C0CFEA80FB80EEE014
:10209000EE0EF11CAA80BB80F1E1AF0EB11C10E086
:1020A00000E0F70141917F0150E070E060E02AE03C
:1020B000C4010E94E00E6C016EE2C4010E9447055B
:1020C0008C0D9D1D080F191FAE14BF0451F7EA8136
:1020D000FB81418950E070E060E02AE0C4010E9489
:1020E000E00E800F911F8A839B83A3CF511055CFA1
:1020F00067CF0E94F2212F923F924F925F926F9290
:102100007F928F929F92AF92BF92CF92DF92EF9287
:10211000FF920F931F93CF93DF93CDB7DEB7E39773
:10212000CDBFDEBFCE01845B9F4F89AB9AAB2C96AF
:102130008EAD9FAD2C978FA798AB10E09E012F5FBF
:102140003F4F490192ED692E94E8792EEFA5F8A949
:102150006081662309F43CC2653231F087EE9BE270
:102160000E94B60B1F5F0BC0CF0101968FA798ABE3
:102170001DA61EA68181811108C0EFA7F8AB8FA50F
:1021800098A901968FA798ABE1CF853211F465E24B
:10219000E5CF00E08D3221F43296EFA7F8AB01E0F5
:1021A000EFA5F8A98081803321F43196EFA7F8AB31
:1021B0000260EFA5F8A980818A3209F05BC03196F0
:1021C000EFA7F8ABCE01C1960E9417078DA79EA777
:1021D00001FF58C030E33BAB8FA298A619A61AA600
:1021E0001DA21EA26BA27CA21BA61CA6EFA5F8A98D
:1021F00080818E3251F43196EFA7F8ABBE01655D58
:102200007F4FCE018F960E94F106EFA5F8A980813D
:10221000D12C8C3629F43196EFA7F8ABDD24D3947A
:10222000EFA5F8A98081833781F5CE01C1960E9480
:102230001707FC0101900020E9F73197E81BF90B23
:102240008FA398A7E9A7FAA7E9A4FAA48DA59EA54C
:10225000E816F90608F490C11DA61EA600FD95C15A
:102260000DA5015008F48DC16BA987EE9BE20E9479
:10227000B60BF7CFBE01635D7F4FCE018F960E94F4
:10228000F106A6CF80E28BABA7CF803789F4CE01D1
:10229000C1960E9417072CEC34E8298F3A8F8B8F58
:1022A0009C8F67EE7BE2CE0149960E94230767CFA1
:1022B0008237D9F4EDA4FEA4CE01C1960E9417077F
:1022C0008D8F9E8FEF8EF8A21B8E1C8E88EB94E86C
:1022D000898F9A8F26EC34E829A33AA367EE7BE234
:1022E000CE0149960E944E184ACF8E3601F5CE0196
:1022F000C1960E9417077C018DA59EA59C012150C7
:1023000031092DA73EA7892B09F439CFDD2049F0EB
:10231000E114F10489F3B70187EE9BE20E94D10E2C
:10232000EBCF6E2D87EE9BE20E944705E5CF84360A
:1023300011F08936D1F4DD2079F0E9A9FAA9CF01AD
:10234000049689AB9AAB4081518162817381CE0141
:1023500083960E94260F78CFCE01C1960E94170760
:10236000AC01990F660B770BF2CF8537D1F4E9A951
:10237000FAA9CF01DD2069F0049689AB9AAB4081C0
:102380005181628173812AE0CE0183960E94E00E22
:102390005BCF029689AB9AAB4081518170E060E0DF
:1023A000F2CF863609F0C1C0ABA4BCA4E9A9FAA952
:1023B000CF01049689AB9AABC080D180E280F380D4
:1023C000B7FE03C082E0A82EB12CA7019601C70179
:1023D000B6010E941B2062E675E8811126C0160135
:1023E0002701E89457F82FEF3FEF4FE75FE7C2016F
:1023F000B1010E941B2081110CC02FEF3FEF4FE76E
:102400005FE7C201B1010E94511E66E675E8181629
:1024100064F02FEF3FEF4FE75FE4C701B6010E9482
:10242000A91F18163CF46AE675E8CE0183960E944F
:10243000D10E0ACF2FEF3FEF4FE75FECC701B60198
:102440000E94511E87FDEFCF20E030E0A901C701B7
:10245000B6010E94511E87FF09C06DE2CE0183962E
:102460000E944705F7FAF094F7F8F094512C60E0D9
:1024700070E080E09FE35A141B0444F420E030E055
:1024800040E251E40E94561E5394F5CFA7019601F5
:102490000E94E51D6B017C010E94C81E1B012C01DE
:1024A0002AE0BC01A101CE0183960E94E00EA11496
:1024B000B10409F4C9CEC201B1010E94F71E9B010B
:1024C000AC01C701B6010E94E41D6B017C016EE600
:1024D00075E8CE0183960E94D10E31E0A31AB108AF
:1024E00008F4B2CE20E030E040E251E4C701B6018A
:1024F0000E94AE1F1B012C010E94C81E6B01F12C13
:10250000E12C2AE0B701A601CE0183960E94E00EDD
:10251000C701B6010E94F71E9B01AC01C201B101C7
:102520000E94E41D6B017C01D8CF8837B1F4E9A982
:10253000FAA9CF01DD2049F0049689AB9AAB40811E
:1025400051816281738120E11FCF029689AB9AABE2
:102550004081518170E060E0F6CF833609F074CE9F
:10256000CE01C1960E94170789838FA298A621E009
:1025700030E029A73AA768CE8E199F098DA79EA79C
:102580006DCE8DA5180F1DA61EA6EFA1F8A589A5D5
:102590009AA59C012F5F3F4F29A73AA7E80FF91F83
:1025A00010826FA178A5A70187EE9BE20E944E05DD
:1025B000082FFDA4FA943FEFF31631F06BA987EED4
:1025C0009BE20E94B60BF6CF8DA5180F100FD7CD4A
:1025D000812F90E0E396CDBFDEBFDF91CF911F91B9
:1025E0000F91FF90EF90DF90CF90BF90AF909F90B2
:1025F0008F907F906F905F904F903F902F900895B5
:10260000CF92DF92EF92FF920F931F93CF93DF93BE
:102610008EE00E94EA02EC018FE00E94EA028C0147
:10262000BE0180E00E941A06B80181E00E941A06ED
:1026300080E00E94BA0C20ED32E0DE010E9475209D
:10264000CC24CA9423E0D22EE12CF12CA7019601D0
:102650000E945620DA01C90188569140A109B109AA
:102660009F938F9380E795E89F938F93C7EEDBE26C
:10267000DF93CF930E947B1088E00E94BA0C20ED7C
:1026800032E0D8010E947520A70196010E945620D1
:10269000DA01C90188569140A109B1099F938F932E
:1026A00088E795E89F938F93DF93CF930E947B10E9
:1026B0008DB79EB70C968DBF9EBFDF91CF911F91B6
:1026C0000F91FF90EF90DF90CF900895FF920F93BE
:1026D0001F93CF93DF93EC01F62E0C811D818E8129
:1026E0009F81080F191FC8010E94C81D8F1521F076
:1026F0006F2DC8010E94D01D8E819F8101968E830F
:102700009F8381E090E0DF91CF911F910F91FF9027
:102710000895CF92DF92EF92FF920F93FC01C12CAC
:10272000B9E0DB2EBDE3EB2EF12CC082D182E28238
:10273000F3821482158281E090E086839783C090B3
:102740000028D0900128E0900228F0900328F69409
:10275000E794D794C79490E04C155D056E057F050E
:1027600040F4F694E794D794C7949F5F9630A1F70E
:1027700097E004600187892F8095A82FA170B0E0B1
:1027800084E0AA0FBB1F8A95E1F791629A2B80E043
:10279000232B09F480E4982B90870F91FF90EF9002
:1027A000DF90CF9008950F931F93CF93DF93CDB712
:1027B000DEB72A97CDBFDEBF8C01FC018781811176
:1027C0000CC010861186128613861486158616860E
:1027D0001786108A118A81E087838091E305F801CA
:1027E0009681892B8093E30561E070E083810E94EC
:1027F000E50261E070E0F80184810E94E5028091C9
:10280000C10884608093C1088091C0088162809370
:10281000C0084091D32B5091D42B6091D52B70914F
:10282000D62B0091D72B2091D92B3091DA2BCE01CA
:1028300001960E94891399858A859093C008809398
:10284000C1082A96CDBFDEBFDF91CF911F910F91B6
:1028500008955F926F927F928F929F92AF92BF92F4
:10286000CF92DF92EF92FF920F931F93CF93DF935C
:10287000CDB7DEB76297CDBFDEBF3C010B871C87AB
:102880002D873E87042F4F87588B698B7A8B298938
:102890003A894B855C856D857E85CE0101960E94C7
:1028A000891359841A85D30118968C91882319F0BD
:1028B00081FF18C0F8945092C0081093C108629626
:1028C000CDBFDEBFDF91CF911F910F91FF90EF90B1
:1028D000DF90CF90BF90AF909F908F907F906F9040
:1028E0005F90089580FFE7CFF30182849384A484EE
:1028F000B584C12CD12C7601B0E09401A501B601BC
:10290000C701A0E00E94AC20A9F1217030E040E0B6
:1029100050E060E070E080E090E00E94AC20E9F0E0
:1029200090E080E0B03370F48B2F86958695869585
:10293000F0E28F9FC0011124805F9B4F2B2F2770E7
:10294000820F911DFC01408193012B0F311DF90174
:10295000428BFC012081287F20839401A501B601D0
:10296000C70101E00E94912049015A016B017C01DD
:10297000BF5FC3CFD3011E968D909D90AD90BC904C
:102980005197C12CD12C7601B0E29401A501B6017A
:10299000C701A0E00E94AC2009F48DCF217030E087
:1029A00040E050E060E070E080E090E00E94AC2009
:1029B000E9F090E080E0B03370F48B2F8695869537
:1029C0008695E0E28E9FC0011124805F9B4F2B2FE4
:1029D0002770820F911DFC01408193012B0F311D47
:1029E000F901428BFC012081287F20839401A501FD
:1029F000B601C70101E00E94912049015A016B0113
:102A00007C01BF5FC2CF1F920F920FB60F921124AD
:102A10002F933F934F935F936F937F938F939F93E6
:102A2000AF93BF934091A9295091AA296091AB29F6
:102A30007091AC298091A7299091A8292091A5296E
:102A40003091A629420F531F611D711D2091A329AA
:102A50003091A429820F931F883E23E0920730F023
:102A6000885E93404F5F5F4F6F4F7F4F8093A729E2
:102A70009093A8294093A9295093AA296093AB2940
:102A80007093AC298091B1299091B229A091B3297A
:102A9000B091B4290196A11DB11D8093B1299093E5
:102AA000B229A093B329B093B42981E08093B60AE8
:102AB000BF91AF919F918F917F916F915F914F9156
:102AC0003F912F910F900FBE0F901F9018951F925E
:102AD0000F920FB60F9211242F933F934F935F9352
:102AE0006F937F938F939F93AF93BF93EF93FF93D6
:102AF00085E00E946203FF91EF91BF91AF919F919A
:102B00008F917F916F915F914F913F912F910F9096
:102B10000FBE0F901F9018951F920F920FB60F9235
:102B200011242F933F934F935F936F937F938F93D2
:102B30009F93AF93BF93EF93FF9384E00E94620350
:102B4000FF91EF91BF91AF919F918F917F916F9185
:102B50005F914F913F912F910F900FBE0F901F905B
:102B600018951F920F920FB60F9211242F933F9337
:102B70004F935F936F937F938F939F93AF93BF9385
:102B8000EF93FF9383E00E946203FF91EF91BF9167
:102B9000AF919F918F917F916F915F914F913F91F5
:102BA0002F910F900FBE0F901F9018951F920F92AC
:102BB0000FB60F9211242F933F934F935F936F9310
:102BC0007F938F939F93AF93BF93EF93FF9382E095
:102BD0000E946203FF91EF91BF91AF919F918F91FE
:102BE0007F916F915F914F913F912F910F900FBE09
:102BF0000F901F9018951F920F920FB60F921124ED
:102C00002F933F934F935F936F937F938F939F93F4
:102C1000AF93BF93EF93FF9381E00E946203FF9114
:102C2000EF91BF91AF919F918F917F916F915F9144
:102C30004F913F912F910F900FBE0F901F901895BD
:102C40001F920F920FB60F9211242F933F934F9321
:102C50005F936F937F938F939F93AF93BF93EF9304
:102C6000FF9380E00E946203FF91EF91BF91AF91CB
:102C70009F918F917F916F915F914F913F912F9194
:102C80000F900FBE0F901F9018951F920F920FB6C6
:102C90000F9211242F933F934F935F936F937F93E2
:102CA0008F939F93AF93BF93EF93FF9385EB99E23D
:102CB0000E948D04FF91EF91BF91AF919F918F91F1
:102CC0007F916F915F914F913F912F910F900FBE28
:102CD0000F901F9018951F920F920FB60F9211240C
:102CE0002F933F934F935F936F937F938F939F9314
:102CF000AF93BF93EF93FF9385EB99E20E94980304
:102D0000FF91EF91BF91AF919F918F917F916F91C3
:102D10005F914F913F912F910F900FBE0F901F9099
:102D200018951F920F920FB60F9211242F933F9375
:102D30004F935F936F937F938F939F93AF93BF93C3
:102D4000EF93FF9380E59AE20E948D04FF91EF914B
:102D5000BF91AF919F918F917F916F915F914F91B3
:102D60003F912F910F900FBE0F901F9018951F92BB
:102D70000F920FB60F9211242F933F934F935F93AF
:102D80006F937F938F939F93AF93BF93EF93FF9333
:102D900080E59AE20E949803FF91EF91BF91AF9175
:102DA0009F918F917F916F915F914F913F912F9163
:102DB0000F900FBE0F901F9018951F920F920FB695
:102DC0000F9211242F933F934F935F936F937F93B1
:102DD0008F939F93AF93BF93CF93EF93FF93C09144
:102DE000AB08C2FF0AC010921D2810921C28109236
:102DF0000E2884E00E94CF0A14C0C6FF2FC0809125
:102E00001828813051F480911D28E0912528F091F7
:102E1000262890E0099510921828C0FF14C00E943F
:102E2000DF0AFF91EF91CF91BF91AF919F918F9169
:102E30007F916F915F914F913F912F910F900FBEB6
:102E40000F901F90189580E48093AB0881E00E945A
:102E5000CF0A8091AB0885FFE4CFE1CFC7FF5CC00C
:102E6000C3FF08C010921D2810921C2810920E2833
:102E700083E0C0CF8091A90880668093A9088091E3
:102E8000AB0881FF2CC080911C28882349F08091D9
:102E9000AB0884FF05C082E08093AA0881E0AACF36
:102EA00090911C2880910E289817A8F4E0911C2876
:102EB00080911E2890911F28E80FF92FF11D808125
:102EC0008093AD0880911C288F5F80931C2883E03D
:102ED0008093AA08A6CF82E08093AA088BCF909116
:102EE0001D2880912228981790F48091AD08E091D8
:102EF0001D282091232830912428E20FF32FF11D63
:102F0000808380911D288F5F80931D28E0CF86E00D
:102F10008093AA0882E06ECF85E06CCF1F920F925B
:102F20000FB60F9211242F933F938F939F93EF939C
:102F3000FF938091A508982F9C70E1F08091A508DF
:102F400094E082FF93E0909315288093A50881E098
:102F500090E080932A2890932B2810922928FF91A3
:102F6000EF919F918F913F912F910F900FBE0F90F6
:102F70001F90189586FF4EC020911228909111281D
:102F80008091A50884FF15C080911028882379F0CE
:102F900083E08093A40885E0809315281092292867
:102FA00081E090E080932A2890932B28D8CF81E06D
:102FB000F0CF80911628821790F4E0911628809126
:102FC000132890911428E80FF92FF11D8081809328
:102FD000A808809116288F5F80931628C0CF809113
:102FE0001728891760F484E090E080932A28909352
:102FF0002B2880910F2881608093A708B0CF809103
:103000001028882329F083E08093A40881E0C4CFAE
:1030100081E0FACF87FF40C0909117288091112856
:103020009817D8F48091A808E091172820912728B4
:1030300030912828E20FF32FF11D8083809117280B
:103040008F5F8093172890911128809117288917F6
:10305000D8F482E08093A40882CF8091102888233E
:1030600089F087E08093A40882E08093152810926D
:10307000292881E090E080932A2890932B281092B1
:1030800011286DCF85E0EECF80911028882311F0B4
:1030900087E0BACF85E0B8CF86E07ECFEF92FF928F
:1030A0000F931F93CF93DF937C018B01D0E0C0E09F
:1030B000D70116968D919C911797C817D90790F450
:1030C00014968D919C918C0F9D1F0E94C81DD80154
:1030D000ED91FC910190F081E02D682FC8010995D8
:1030E0002196E6CFDF91CF911F910F91FF90EF9046
:1030F000089508970C944E180F931F93CF93DF9366
:10310000C5E3DCE201E71CE288819981009741F088
:103110000E9469211A821B82188219821C821D82D8
:1031200026960C171D0781F7DF91CF911F910F9104
:103130000895CF92DF92EF92FF920F931F93CF9358
:10314000DF93E5EBF9E21282138288EE93E0A0E0D0
:10315000B0E084839583A683B7836EED74E86083C3
:10316000718320E238E024873587168641E047875F
:1031700024E0208B128A138A148A158A2BE1268B6D
:10318000178A108E10924E2A10924F2AE0E5FAE22A
:103190001282138284839583A683B78360837183AD
:1031A00060E678E0648775873AE13687278720E410
:1031B000208B128A138A148A158A26E2268B178A94
:1031C000108E1092E92A1092EA2AEFEFFAE268EFE5
:1031D00074E86083718321E030E0228B338B50E10F
:1031E000E1E0FBE2EF01152F19921A95E9F7EBEEFA
:1031F000FAE260837183128A138A0DEE1AE26CE0A0
:10320000E80119926A95E9F716861786108A118ADD
:1032100063E17BE21092532B1092542B6093562B58
:103220007093572BE0E4F0E0E093582BF093592B88
:1032300010925A2B10925B2B10925C2B10925D2BEC
:1032400010925E2B10925F2B1092602B1092612BCC
:103250001092622B1092632B1092642B1092652BAC
:103260001092662B1092672B1092682B1092692B8C
:1032700010926A2B10926B2B10926C2B1092712B68
:103280001092722B1092732B1092742B1092752B3C
:103290001092762B1092772B1092782B1092852B10
:1032A0001092862B1092552B1092932B1092942BE8
:1032B0001092952B1092D22BE0E8F1E0E093792B5D
:1032C000F0937A2BEAE8F1E0E0937B2BF0937C2BF0
:1032D000E4E9F1E0E0937D2BF0937E2BEEE9F1E061
:1032E000E0937F2BF093802BE8EAF1E0E093812BD1
:1032F000F093822BE2EBF1E0E093832BF093842BAD
:10330000ECEBF1E0E093872BF093882BEDEBF1E011
:10331000E093892BF0938A2BECEEF6E0E0938B2B75
:10332000F0938C2B60936D2B70936E2BEBE5F3E099
:10333000E0938D2BF0938E2B60936F2B7093702BFB
:1033400068EC71E060938F2B7093902BE3EDFBE2C0
:10335000C12C69E0D62E6DE3E62EF12CC082D1821D
:10336000E282F3821482158226833783E5E3FCE24E
:103370006CE3EF0119926A95E9F7EBEDFBE212823B
:10338000138284839583A683B7838EEF94E880832A
:103390009183EDEEFBE21282138286E295E8808350
:1033A000918387E28483518782E082871386A7EE28
:1033B000BBE212961D921C92139782E395E88D93BF
:1033C0009C9311971496ED93FC931597E9EFFBE20C
:1033D0001286128213821482158284E690E0A0E0A5
:1033E000B0E086839783A087B1876EE375E860833A
:1033F0007183E4E0FCE21286128213821482158249
:1034000086839783A087B18753874487458716862D
:103410001786108A118A4AE455E840835183228B2B
:10342000338BE8E1FCE21286128213821482158249
:1034300086839783A087B1878AE595E88083918307
:1034400013861486158616861786108A118A128AA4
:10345000138A148A158A168A178A108E118E128E74
:10346000138E148EDF91CF911F910F91FF90EF90EB
:10347000DF90CF90089588ED90E084BF9093610035
:1034800080E094E2A4EFB0E08093002890930128BC
:10349000A0930228B093032880910206866080934F
:1034A00002068091000681608093000680910206EA
:1034B0008F7C809302068091A0008F788093A0007B
:1034C000809102068061809302061092E20581E0FD
:1034D0008093E40583E08093010A8FEF90E080936E
:1034E000260A9093270A80E890E08093380A909308
:1034F000390A80933A0A90933B0A80933C0A90934E
:103500003D0A8BE08093000A8091E50581608093FD
:10351000E5058091E50582608093E505E0E8FAE045
:1035200037E02FEF90E885E031832487958780830B
:103530007096E03C4AE0F407B9F780E094E08093AD
:10354000AF299093B0298091AF299091B0292FEFA6
:1035500030E0B9010E9420206093AD297093AE291C
:103560008091AF299091B029E8EEF3E0BF010E946D
:1035700020206093A5297093A6298091AF2990916E
:10358000B029BF010E9420208093A3299093A429F1
:103590002093BC0A3093BD0A8091B50A8160809364
:1035A000B50A84E08093B00A8091B00A816080936C
:1035B000B00A789461E070E08CE10E94420261E020
:1035C00070E08CE10E94A20261E070E08DE10E9457
:1035D000420261E070E08DE10E94A20261E070E0D1
:1035E00083E20E94420261E070E083E20E94A20254
:1035F00061E070E08EE10E94420261E070E08EE1E5
:103600000E94A20240E052EC61E070E080E59AE2A4
:103610000E94C10B40E052EC61E070E085EB99E262
:103620000E94C10B85EB99E28093912B9093922B92
:103630008093532B9093542B83E59BE20E94C90106
:1036400083E19BE20E9478068BED9BE20E94730B64
:103650001092F22B8091F72B823018F098E0909323
:10366000F22B8093F52B62E370E080E090E00E9403
:103670002B036091F82B8DEE9BE20E94B60968EE59
:1036800073E080E090E00E942B0360E38DEE9BE20C
:103690000E948A0CCBE4D6E4CE010197F1F760E3F7
:1036A0008DEE9BE20E948A0C2197F1F760E38DEE8C
:1036B0009BE20E948A0C83E592E00197F1F760E2B9
:1036C0008DEE9BE20E948A0C6091F22B606240E0DA
:1036D0008DEE9BE20E94A30C84E08093F32B40E0EC
:1036E0006CE08DEE9BE20E94A30C40E061E08DEE69
:1036F0009BE20E94A30CCBE3DFE1CE010197F1F73F
:1037000082E08093F42B40E066E08DEE9BE20E9425
:10371000A30C40E062E08DEE9BE20E94A30C219797
:10372000F1F788E08093F82B60E08DEE9BE20E9439
:10373000B60942E350E060E070E089EF9BE20E944E
:10374000170CC1E0C093032C42E350E060E070E04E
:1037500084E09CE20E94740CC0930E2C44EF51E074
:1037600060E070E088E19CE20E941C0D61E070E086
:103770008AE00E94420261E070E089E00E94420219
:1037800061E070E088E00E94420280EA9BE0809362
:103790009B2990939C2987E59DE08093A129909394
:1037A000A229C0E0D0E0DD24D39402E010E0EE24B2
:1037B000E394F12C89EF9BE20E94CE0B84E09CE223
:1037C0000E94CE0B88E19CE20E94CE0B8091912B4F
:1037D0009091922BDC01ED91FC910084F185E02D1C
:1037E0000995892B09F4CEC18091912B9091922B50
:1037F000DC01ED91FC910284F385E02D09959C019B
:103800008F3F980719F3982F80915E2B882309F436
:1038100092C0973F09F07EC010925E2BA091562B6C
:10382000B091572B6C916137C1F1693709F05CC0D9
:10383000E0918B2BF0918C2B309741F280915F2B94
:103840009091602B8330910560F430E020E050E0EF
:1038500040E070E060E080916D2B90916E2B0995B7
:10386000B5CFBD016D5F7F4F03970E942302BC015E
:103870006D5F7F4F80E00E94F301E091562BF09145
:10388000572B9F012D5F3F4F428150E0618170E0D7
:10389000E0918B2BF0918C2BDECF8091872B909138
:1038A000882B892B09F492CFBD016F5F7F4F8091E8
:1038B0005F2B9091602B01970E942302BC016F5FE8
:1038C0007F4F80E00E94F3016091562B7091572B3F
:1038D0006F5F7F4FE091872BF091882B8091732B46
:1038E0009091742B099572CFE091892BF0918A2BDE
:1038F000309709F46BCF9D012F5F3F4F40915F2BB5
:103900005091602B415051098091752B9091762BED
:1039100009955CCF60915F2B7091602B822F0E9484
:10392000F30180915F2B9091602B019680935F2B28
:103930009093602B4BCF60915C2B70915D2B611548
:10394000710509F4B1C027FDAFC0615071096093E2
:103950005C2B70935D2B822F0E94F30180915C2B76
:1039600090915D2B892B09F031CF80915A2B8823C0
:1039700009F42CCF803D09F483C040F4803949F12B
:10398000803C09F469C010925A2B20CF843FE1F1AA
:10399000853F09F44DC0803EB1F7E091792BF0915D
:1039A0007A2B309781F3A091562BB091572B4C91E5
:1039B00020E8429FC001112411964C91480F592FC5
:1039C000511D60915B2B8091612B9091622B099529
:1039D000DACFE0917B2BF0917C2B3097A1F2A09174
:1039E000562BB091572B4C9120E8429FC0011124D7
:1039F00011964C91480F592F511D60915B2B80916E
:103A0000632B9091642BE3CFE091812BF091822B7B
:103A1000309709F4B8CFA091562BB091572B4C9109
:103A200050E011966C918091692B90916A2BCFCFC9
:103A3000E091832BF091842B309709F4A4CFA091CF
:103A4000562BB091572B4C9150E011966C91809170
:103A50006B2B90916C2BBBCFE0917D2BF0917E2B4B
:103A6000309709F490CFA091562BB091572B4C91E1
:103A700050E060915B2B8091652B9091662BA7CFD6
:103A8000E0917F2BF091802B309709F47CCFA091AF
:103A9000562BB091572B4C9150E060915B2B80914D
:103AA000672B9091682B93CF903F30F4822F8F70CB
:103AB00080935B2B922F907F903FF1F190F4903C9C
:103AC000B1F150F4903909F081CE00935C2B109342
:103AD0005D2B90935A2B7ACE903D49F1903EA9F3FD
:103AE00075CE993F09F442C028F48CE0890F8230EA
:103AF00060F36CCE9F3F09F069CE10925C2B109260
:103B00005D2B10925A2B10925B2B90E080E020915D
:103B1000582B3091592B82179307A8F4E091562B1C
:103B2000F091572BE80FF91F10820196F0CFE09229
:103B30005C2BF0925D2BCDCFD0925E2B10925F2B41
:103B40001092602B43CE10925E2B10925F2B10923E
:103B5000602BE0918F2BF091902B8091772B90919F
:103B6000782B309709F432CE099530CEE0918D2B29
:103B7000F0918E2B309709F429CE80916F2B909184
:103B8000702BF2CF209709F415CE0E94000012CEC0
:103B900003D0808199270895FC01E050FC4E0895E0
:103BA000262FAF93BF93E0E0F0E1328131FDFDCFEE
:103BB000DC01A050BC4E2C932DE924BF23E02083D0
:103BC0000196BF91AF9108955058BB27AA270E9434
:103BD000FC1D0C946F1F0E94611F38F00E94681F2B
:103BE00020F039F49F3F19F426F40C945E1F0EF474
:103BF000E095E7FB0C94581FE92F0E94801F58F3B3
:103C0000BA17620773078407950720F079F4A6F5C1
:103C10000C94A21F0EF4E0950B2EBA2FA02D0B01D1
:103C2000B90190010C01CA01A0011124FF27591B01
:103C300099F0593F50F4503E68F11A16F040A22F07
:103C4000232F342F4427585FF3CF46953795279578
:103C5000A795F0405395C9F77EF41F16BA0B620B77
:103C6000730B840BBAF09150A1F0FF0FBB1F661FBE
:103C7000771F881FC2F70EC0BA0F621F731F841F01
:103C800048F4879577956795B795F7959E3F08F027
:103C9000B0CF9395880F08F09927EE0F97958795E9
:103CA00008950E94341F08F481E008950E946A1E5E
:103CB0000C946F1F0E94681F58F00E94611F40F013
:103CC00029F45F3F29F00C94581F51110C94A31F45
:103CD0000C945E1F0E94801F68F39923B1F3552353
:103CE00091F3951B550BBB27AA276217730784070F
:103CF00038F09F5F5F4F220F331F441FAA1FA9F3A5
:103D000035D00E2E3AF0E0E832D091505040E69592
:103D1000001CCAF72BD0FE2F29D0660F771F881FF3
:103D2000BB1F261737074807AB07B0E809F0BB0BE6
:103D3000802DBF01FF2793585F4F3AF09E3F5105FA
:103D400078F00C94581F0C94A31F5F3FE4F3983E47
:103D5000D4F3869577956795B795F7959F5FC9F7E3
:103D6000880F911D9695879597F90895E1E0660F64
:103D7000771F881FBB1F621773078407BA0720F0DD
:103D8000621B730B840BBA0BEE1F88F7E095089546
:103D90000E94881F88F09F5798F0B92F9927B75134
:103DA000B0F0E1F0660F771F881F991F1AF0BA95DF
:103DB000C9F714C0B13091F00E94A21FB1E008957C
:103DC0000C94A21F672F782F8827B85F39F0B93F6E
:103DD000CCF3869577956795B395D9F73EF4909592
:103DE0008095709561957F4F8F4F9F4F0895E89410
:103DF00009C097FB3EF490958095709561957F4F33
:103E00008F4F9F4F9923A9F0F92F96E9BB279395E0
:103E1000F695879577956795B795F111F8CFFAF4F0
:103E2000BB0F11F460FF1BC06F5F7F4F8F4F9F4F21
:103E300016C0882311F096E911C0772321F09EE87F
:103E4000872F762F05C0662371F096E8862F70E0E5
:103E500060E02AF09A95660F771F881FDAF7880FBF
:103E60009695879597F90895990F0008550FAA0B15
:103E7000E0E8FEEF16161706E807F907C0F012167D
:103E80001306E407F50798F0621B730B840B950B80
:103E900039F40A2661F0232B242B252B21F40895D5
:103EA0000A2609F4A140A6958FEF811D811D089572
:103EB00097F99F6780E870E060E008959FEF80ECDD
:103EC000089500240A941616170618060906089580
:103ED00000240A9412161306140605060895092EE6
:103EE0000394000C11F4882352F0BB0F40F4BF2B55
:103EF00011F460FF04C06F5F7F4F8F4F9F4F089595
:103F000057FD9058440F551F59F05F3F71F047958A
:103F1000880F97FB991F61F09F3F79F0879508956F
:103F2000121613061406551FF2CF4695F1DF08C08E
:103F3000161617061806991FF1CF869571056105AB
:103F400008940895E894BB2766277727CB0197F953
:103F500008950E94341F08F48FEF08950E94C11F36
:103F60000C946F1F0E94611F38F00E94681F20F0A0
:103F7000952311F00C94581F0C945E1F11240C947F
:103F8000A31F0E94801F70F3959FC1F3950F50E00F
:103F9000551F629FF001729FBB27F00DB11D639FFB
:103FA000AA27F00DB11DAA1F649F6627B00DA11DA1
:103FB000661F829F2227B00DA11D621F739FB00D47
:103FC000A11D621F839FA00D611D221F749F3327B7
:103FD000A00D611D231F849F600D211D822F762F50
:103FE0006A2F11249F5750409AF0F1F088234AF02D
:103FF000EE0FFF1FBB1F661F771F881F9150504099
:10400000A9F79E3F510580F00C94581F0C94A31FF4
:104010005F3FE4F3983ED4F3869577956795B7951F
:10402000F795E7959F5FC1F7FE2B880F911D969539
:10403000879597F908950E94341F880B990B08956E
:10404000AA1BBB1B51E107C0AA1FBB1FA617B707BE
:1040500010F0A61BB70B881F991F5A95A9F78095DA
:104060009095BC01CD010895A1E21A2EAA1BBB1B9D
:10407000FD010DC0AA1FBB1FEE1FFF1FA217B30734
:10408000E407F50720F0A21BB30BE40BF50B661F4A
:10409000771F881F991F1A9469F76095709580950E
:1040A00090959B01AC01BD01CF010895052E97FBB2
:1040B0001EF400940E946D2057FD07D00E9434200A
:1040C00007FC03D04EF40C946D205095409530952C
:1040D00021953F4F4F4F5F4F089590958095709574
:1040E00061957F4F8F4F9F4F08950E94BE20B7FF6D
:1040F0000895821B930B08950E94BE20A59F900DEA
:10410000B49F900DA49F800D911D11240895B7FFB9
:104110000C947C200E947C20821B930B089597FDB9
:104120001094002E083098F00850232F342F452F7C
:10413000562F672F782F892F912DF4CF15949795AF
:1041400087957795679557954795379527950A955C
:10415000AAF71124002D08950024A7FD00942A1722
:1041600030054005500560057005800590050895EF
:10417000EE0FFF1F0590F491E02D0994A29FB0016E
:10418000B39FC001A39F700D811D1124911DB29F8B
:10419000700D811D1124911D08950F931F93CF93CE
:1041A000DF938230910510F482E090E0E091732C6F
:1041B000F091742C30E020E0B0E0A0E0309799F46A
:1041C0002115310509F44AC0281B390B243031056B
:1041D000D8F58A819B816115710589F1FB01828384
:1041E0009383FE0111C040815181028113814817E0
:1041F0005907E0F04817590799F4109761F01296A3
:104200000C93129713961C933296CF01DF91CF91A6
:104210001F910F9108950093732C1093742CF4CF79
:104220002115310551F04217530738F0A901DB0180
:104230009A01BD01DF01F801C1CFEF01F9CF8093F1
:10424000732C9093742CCDCFFE01E20FF31F81935A
:1042500091932250310928833983D7CF2091712C33
:104260003091722C232B41F420910628309107289D
:104270002093712C3093722C2091042830910528C2
:104280002115310541F42DB73EB7409108285091D2
:104290000928241B350BE091712CF091722CE21748
:1042A000F307A0F42E1B3F0B2817390778F0AC0159
:1042B0004E5F5F4F2417350748F04E0F5F1F409346
:1042C000712C5093722C819391939FCFF0E0E0E09A
:1042D0009CCFCF93DF930097E9F0FC0132971282D5
:1042E0001382A091732CB091742CED0130E020E08A
:1042F0001097A1F420813181820F931F2091712C9E
:104300003091722C2817390709F061C0E093712CA5
:10431000F093722CDF91CF910895EA01CE17DF0759
:10432000E8F54A815B819E0141155105B1F7E9012C
:10433000EA83FB8349915991C40FD51FEC17FD0700
:1043400061F4808191810296840F951FE901888331
:104350009983828193818A839B83F0E0E0E01296C7
:104360008D919C9113970097B9F52D913C911197E0
:10437000CD010296820F931F2091712C3091722CE7
:104380002817390739F6309751F51092732C10928F
:10439000742CA093712CB093722CBCCFC283D383A6
:1043A00040815181840F951FC817D90761F44E5F72
:1043B0005F4F88819981480F591F408351838A81BB
:1043C0009B81828393832115310509F0B0CFE0935F
:1043D000732CF093742C9ECFFD01DC01C0CF1282B0
:1043E0001382D7CF81E090E0F8940C94F72111E08C
:1043F000C1E5D1E004C0FE010E94B8202196C2357B
:08440000D107C9F7F894FFCFC2
:1044080000004000140054000000000300010200F6
:104418000001010000000000000000000000000092
:104428000000000000000000000000000000000084
:104438000005040005060204010300010001020052
:104448000102030405020303050406050406070325
:10445800070001020203000107060202000502012B
:10446800050004010104040403030303030300001B
:104478000200000301010000010202020205050515
:104488000503052010012040041002080102010262
:1044980004010204081020040808201040201040DD
:1044A8008008800102040408010280400000000026
:1044B80066134E05CB0BCA0B4E18F8FF000079188F
:1044C8000000000023070000000051074E05CB0B39
:1044D800CA0B00000000D2044E05BD032305EE03FD
:1044E800CC03E003C10B1304FA03450500000000E8
:1044F800580F000000008C096709CB0B3D096009C3
:104508004D093E09730BE409D7096F0BAF09860AF9
:10451800A709A50ACF091609110900000000E60C31
:104528004E05CB0BCA0B00000000B60B4E05CB0B9B
:10453800CA0B00000000170C7F01840C0013000058
:104548000000740C7E01860C2C0CAB0B3D0900009E
:1045580000001C0D7C01880C260D6E616E00696ED2
:1045680066006F7666002E00583D202530346400C2
:08457800593D20253034640098
:0A4580000024F4000000752C8000F8
:0400000300000200F7
:00000001FF
